{
  "_format": "hh-sol-artifact-1",
  "contractName": "StephenResume",
  "sourceName": "src/backend/contracts/StephenResume.sol",
  "abi": [
    {
      "inputs": [],
      "stateMutability": "nonpayable",
      "type": "constructor"
    },
    {
      "anonymous": false,
      "inputs": [
        {
          "indexed": true,
          "internalType": "address",
          "name": "owner",
          "type": "address"
        },
        {
          "indexed": true,
          "internalType": "address",
          "name": "approved",
          "type": "address"
        },
        {
          "indexed": true,
          "internalType": "uint256",
          "name": "tokenId",
          "type": "uint256"
        }
      ],
      "name": "Approval",
      "type": "event"
    },
    {
      "anonymous": false,
      "inputs": [
        {
          "indexed": true,
          "internalType": "address",
          "name": "owner",
          "type": "address"
        },
        {
          "indexed": true,
          "internalType": "address",
          "name": "operator",
          "type": "address"
        },
        {
          "indexed": false,
          "internalType": "bool",
          "name": "approved",
          "type": "bool"
        }
      ],
      "name": "ApprovalForAll",
      "type": "event"
    },
    {
      "anonymous": false,
      "inputs": [
        {
          "indexed": true,
          "internalType": "address",
          "name": "previousOwner",
          "type": "address"
        },
        {
          "indexed": true,
          "internalType": "address",
          "name": "newOwner",
          "type": "address"
        }
      ],
      "name": "OwnershipTransferred",
      "type": "event"
    },
    {
      "anonymous": false,
      "inputs": [
        {
          "indexed": true,
          "internalType": "address",
          "name": "from",
          "type": "address"
        },
        {
          "indexed": true,
          "internalType": "address",
          "name": "to",
          "type": "address"
        },
        {
          "indexed": true,
          "internalType": "uint256",
          "name": "tokenId",
          "type": "uint256"
        }
      ],
      "name": "Transfer",
      "type": "event"
    },
    {
      "inputs": [
        {
          "internalType": "address",
          "name": "to",
          "type": "address"
        },
        {
          "internalType": "uint256",
          "name": "tokenId",
          "type": "uint256"
        }
      ],
      "name": "approve",
      "outputs": [],
      "stateMutability": "nonpayable",
      "type": "function"
    },
    {
      "inputs": [
        {
          "internalType": "address",
          "name": "owner",
          "type": "address"
        }
      ],
      "name": "balanceOf",
      "outputs": [
        {
          "internalType": "uint256",
          "name": "",
          "type": "uint256"
        }
      ],
      "stateMutability": "view",
      "type": "function"
    },
    {
      "inputs": [],
      "name": "baseExtension",
      "outputs": [
        {
          "internalType": "string",
          "name": "",
          "type": "string"
        }
      ],
      "stateMutability": "view",
      "type": "function"
    },
    {
      "inputs": [],
      "name": "baseURI",
      "outputs": [
        {
          "internalType": "string",
          "name": "",
          "type": "string"
        }
      ],
      "stateMutability": "view",
      "type": "function"
    },
    {
      "inputs": [],
      "name": "cost",
      "outputs": [
        {
          "internalType": "uint256",
          "name": "",
          "type": "uint256"
        }
      ],
      "stateMutability": "view",
      "type": "function"
    },
    {
      "inputs": [
        {
          "internalType": "uint256",
          "name": "tokenId",
          "type": "uint256"
        }
      ],
      "name": "getApproved",
      "outputs": [
        {
          "internalType": "address",
          "name": "",
          "type": "address"
        }
      ],
      "stateMutability": "view",
      "type": "function"
    },
    {
      "inputs": [
        {
          "internalType": "address",
          "name": "owner",
          "type": "address"
        },
        {
          "internalType": "address",
          "name": "operator",
          "type": "address"
        }
      ],
      "name": "isApprovedForAll",
      "outputs": [
        {
          "internalType": "bool",
          "name": "",
          "type": "bool"
        }
      ],
      "stateMutability": "view",
      "type": "function"
    },
    {
      "inputs": [
        {
          "internalType": "address",
          "name": "_to",
          "type": "address"
        },
        {
          "internalType": "uint256",
          "name": "_mintAmount",
          "type": "uint256"
        }
      ],
      "name": "mint",
      "outputs": [],
      "stateMutability": "payable",
      "type": "function"
    },
    {
      "inputs": [],
      "name": "name",
      "outputs": [
        {
          "internalType": "string",
          "name": "",
          "type": "string"
        }
      ],
      "stateMutability": "view",
      "type": "function"
    },
    {
      "inputs": [],
      "name": "owner",
      "outputs": [
        {
          "internalType": "address",
          "name": "",
          "type": "address"
        }
      ],
      "stateMutability": "view",
      "type": "function"
    },
    {
      "inputs": [
        {
          "internalType": "uint256",
          "name": "tokenId",
          "type": "uint256"
        }
      ],
      "name": "ownerOf",
      "outputs": [
        {
          "internalType": "address",
          "name": "",
          "type": "address"
        }
      ],
      "stateMutability": "view",
      "type": "function"
    },
    {
      "inputs": [
        {
          "internalType": "bool",
          "name": "_state",
          "type": "bool"
        }
      ],
      "name": "pause",
      "outputs": [],
      "stateMutability": "nonpayable",
      "type": "function"
    },
    {
      "inputs": [],
      "name": "paused",
      "outputs": [
        {
          "internalType": "bool",
          "name": "",
          "type": "bool"
        }
      ],
      "stateMutability": "view",
      "type": "function"
    },
    {
      "inputs": [
        {
          "internalType": "address",
          "name": "_user",
          "type": "address"
        }
      ],
      "name": "removeWhitelistUser",
      "outputs": [],
      "stateMutability": "nonpayable",
      "type": "function"
    },
    {
      "inputs": [],
      "name": "renounceOwnership",
      "outputs": [],
      "stateMutability": "nonpayable",
      "type": "function"
    },
    {
      "inputs": [
        {
          "internalType": "address",
          "name": "from",
          "type": "address"
        },
        {
          "internalType": "address",
          "name": "to",
          "type": "address"
        },
        {
          "internalType": "uint256",
          "name": "tokenId",
          "type": "uint256"
        }
      ],
      "name": "safeTransferFrom",
      "outputs": [],
      "stateMutability": "nonpayable",
      "type": "function"
    },
    {
      "inputs": [
        {
          "internalType": "address",
          "name": "from",
          "type": "address"
        },
        {
          "internalType": "address",
          "name": "to",
          "type": "address"
        },
        {
          "internalType": "uint256",
          "name": "tokenId",
          "type": "uint256"
        },
        {
          "internalType": "bytes",
          "name": "data",
          "type": "bytes"
        }
      ],
      "name": "safeTransferFrom",
      "outputs": [],
      "stateMutability": "nonpayable",
      "type": "function"
    },
    {
      "inputs": [
        {
          "internalType": "address",
          "name": "operator",
          "type": "address"
        },
        {
          "internalType": "bool",
          "name": "approved",
          "type": "bool"
        }
      ],
      "name": "setApprovalForAll",
      "outputs": [],
      "stateMutability": "nonpayable",
      "type": "function"
    },
    {
      "inputs": [
        {
          "internalType": "string",
          "name": "_newBaseExtension",
          "type": "string"
        }
      ],
      "name": "setBaseExtension",
      "outputs": [],
      "stateMutability": "nonpayable",
      "type": "function"
    },
    {
      "inputs": [
        {
          "internalType": "string",
          "name": "_newBaseURI",
          "type": "string"
        }
      ],
      "name": "setBaseURI",
      "outputs": [],
      "stateMutability": "nonpayable",
      "type": "function"
    },
    {
      "inputs": [
        {
          "internalType": "uint256",
          "name": "_newCost",
          "type": "uint256"
        }
      ],
      "name": "setCost",
      "outputs": [],
      "stateMutability": "nonpayable",
      "type": "function"
    },
    {
      "inputs": [
        {
          "internalType": "bytes4",
          "name": "interfaceId",
          "type": "bytes4"
        }
      ],
      "name": "supportsInterface",
      "outputs": [
        {
          "internalType": "bool",
          "name": "",
          "type": "bool"
        }
      ],
      "stateMutability": "view",
      "type": "function"
    },
    {
      "inputs": [],
      "name": "symbol",
      "outputs": [
        {
          "internalType": "string",
          "name": "",
          "type": "string"
        }
      ],
      "stateMutability": "view",
      "type": "function"
    },
    {
      "inputs": [
        {
          "internalType": "uint256",
          "name": "tokenId",
          "type": "uint256"
        }
      ],
      "name": "tokenURI",
      "outputs": [
        {
          "internalType": "string",
          "name": "",
          "type": "string"
        }
      ],
      "stateMutability": "view",
      "type": "function"
    },
    {
      "inputs": [],
      "name": "totalSupply",
      "outputs": [
        {
          "internalType": "uint256",
          "name": "",
          "type": "uint256"
        }
      ],
      "stateMutability": "view",
      "type": "function"
    },
    {
      "inputs": [
        {
          "internalType": "address",
          "name": "from",
          "type": "address"
        },
        {
          "internalType": "address",
          "name": "to",
          "type": "address"
        },
        {
          "internalType": "uint256",
          "name": "tokenId",
          "type": "uint256"
        }
      ],
      "name": "transferFrom",
      "outputs": [],
      "stateMutability": "nonpayable",
      "type": "function"
    },
    {
      "inputs": [
        {
          "internalType": "address",
          "name": "newOwner",
          "type": "address"
        }
      ],
      "name": "transferOwnership",
      "outputs": [],
      "stateMutability": "nonpayable",
      "type": "function"
    },
    {
      "inputs": [
        {
          "internalType": "address",
          "name": "_owner",
          "type": "address"
        }
      ],
      "name": "walletOfOwner",
      "outputs": [
        {
          "internalType": "uint256[]",
          "name": "",
          "type": "uint256[]"
        }
      ],
      "stateMutability": "view",
      "type": "function"
    },
    {
      "inputs": [
        {
          "internalType": "address",
          "name": "_user",
          "type": "address"
        }
      ],
      "name": "whitelistUser",
      "outputs": [],
      "stateMutability": "nonpayable",
      "type": "function"
    },
    {
      "inputs": [
        {
          "internalType": "address",
          "name": "",
          "type": "address"
        }
      ],
      "name": "whitelisted",
      "outputs": [
        {
          "internalType": "bool",
          "name": "",
          "type": "bool"
        }
      ],
      "stateMutability": "view",
      "type": "function"
    },
    {
      "inputs": [],
      "name": "withdraw",
      "outputs": [],
      "stateMutability": "payable",
      "type": "function"
    }
  ],
  "bytecode": "0x60806040526040518060400160405280600581526020017f2e6a736f6e00000000000000000000000000000000000000000000000000000081525060089080519060200190620000519291906200021a565b5066b1a2bc2ec500006009556000600b60006101000a81548160ff0219169083151502179055503480156200008557600080fd5b506040518060400160405280600e81526020017f5374657068656e20526573756d650000000000000000000000000000000000008152506040518060400160405280600281526020017f535200000000000000000000000000000000000000000000000000000000000081525081600090805190602001906200010a9291906200021a565b508060019080519060200190620001239291906200021a565b505050620001466200013a6200014c60201b60201c565b6200015460201b60201c565b6200032f565b600033905090565b6000600660009054906101000a900473ffffffffffffffffffffffffffffffffffffffff16905081600660006101000a81548173ffffffffffffffffffffffffffffffffffffffff021916908373ffffffffffffffffffffffffffffffffffffffff1602179055508173ffffffffffffffffffffffffffffffffffffffff168173ffffffffffffffffffffffffffffffffffffffff167f8be0079c531659141344cd1fd0a4f28419497f9722a3daafe3b4186f6b6457e060405160405180910390a35050565b8280546200022890620002ca565b90600052602060002090601f0160209004810192826200024c576000855562000298565b82601f106200026757805160ff191683800117855562000298565b8280016001018555821562000298579182015b82811115620002975782518255916020019190600101906200027a565b5b509050620002a79190620002ab565b5090565b5b80821115620002c6576000816000905550600101620002ac565b5090565b60006002820490506001821680620002e357607f821691505b60208210811415620002fa57620002f962000300565b5b50919050565b7f4e487b7100000000000000000000000000000000000000000000000000000000600052602260045260246000fd5b61386d806200033f6000396000f3fe6080604052600436106101d85760003560e01c806355f804b311610102578063a22cb46511610095578063d936547e11610064578063d936547e1461067a578063da3ef23f146106b7578063e985e9c5146106e0578063f2fde38b1461071d576101d8565b8063a22cb465146105c0578063b88d4fde146105e9578063c668286214610612578063c87b56dd1461063d576101d8565b806370a08231116100d157806370a0823114610516578063715018a6146105535780638da5cb5b1461056a57806395d89b4114610595576101d8565b806355f804b31461045a5780635c975abb146104835780636352211e146104ae5780636c0360eb146104eb576101d8565b806323b872dd1161017a57806342842e0e1161014957806342842e0e146103a2578063438b6300146103cb57806344a0d68a146104085780634a4c560d14610431576101d8565b806323b872dd1461032a57806330cc7ae0146103535780633ccfd60b1461037c57806340c10f1914610386576101d8565b8063081812fc116101b6578063081812fc1461026e578063095ea7b3146102ab57806313faede6146102d457806318160ddd146102ff576101d8565b806301ffc9a7146101dd57806302329a291461021a57806306fdde0314610243575b600080fd5b3480156101e957600080fd5b5061020460048036038101906101ff91906126f9565b610746565b6040516102119190612cbf565b60405180910390f35b34801561022657600080fd5b50610241600480360381019061023c91906126cc565b610828565b005b34801561024f57600080fd5b5061025861084d565b6040516102659190612cda565b60405180910390f35b34801561027a57600080fd5b506102956004803603810190610290919061279c565b6108df565b6040516102a29190612c36565b60405180910390f35b3480156102b757600080fd5b506102d260048036038101906102cd919061268c565b610925565b005b3480156102e057600080fd5b506102e9610a3d565b6040516102f69190612efc565b60405180910390f35b34801561030b57600080fd5b50610314610a43565b6040516103219190612efc565b60405180910390f35b34801561033657600080fd5b50610351600480360381019061034c9190612576565b610a54565b005b34801561035f57600080fd5b5061037a60048036038101906103759190612509565b610ab4565b005b610384610b17565b005b6103a0600480360381019061039b919061268c565b610b9f565b005b3480156103ae57600080fd5b506103c960048036038101906103c49190612576565b610d1d565b005b3480156103d757600080fd5b506103f260048036038101906103ed9190612509565b610d3d565b6040516103ff9190612c9d565b60405180910390f35b34801561041457600080fd5b5061042f600480360381019061042a919061279c565b610e48565b005b34801561043d57600080fd5b5061045860048036038101906104539190612509565b610e5a565b005b34801561046657600080fd5b50610481600480360381019061047c9190612753565b610ebd565b005b34801561048f57600080fd5b50610498610edf565b6040516104a59190612cbf565b60405180910390f35b3480156104ba57600080fd5b506104d560048036038101906104d0919061279c565b610ef2565b6040516104e29190612c36565b60405180910390f35b3480156104f757600080fd5b50610500610fa4565b60405161050d9190612cda565b60405180910390f35b34801561052257600080fd5b5061053d60048036038101906105389190612509565b611032565b60405161054a9190612efc565b60405180910390f35b34801561055f57600080fd5b506105686110ea565b005b34801561057657600080fd5b5061057f6110fe565b60405161058c9190612c36565b60405180910390f35b3480156105a157600080fd5b506105aa611128565b6040516105b79190612cda565b60405180910390f35b3480156105cc57600080fd5b506105e760048036038101906105e2919061264c565b6111ba565b005b3480156105f557600080fd5b50610610600480360381019061060b91906125c9565b6111d0565b005b34801561061e57600080fd5b50610627611232565b6040516106349190612cda565b60405180910390f35b34801561064957600080fd5b50610664600480360381019061065f919061279c565b6112c0565b6040516106719190612cda565b60405180910390f35b34801561068657600080fd5b506106a1600480360381019061069c9190612509565b61136a565b6040516106ae9190612cbf565b60405180910390f35b3480156106c357600080fd5b506106de60048036038101906106d99190612753565b61138a565b005b3480156106ec57600080fd5b5061070760048036038101906107029190612536565b6113ac565b6040516107149190612cbf565b60405180910390f35b34801561072957600080fd5b50610744600480360381019061073f9190612509565b611440565b005b60007f80ac58cd000000000000000000000000000000000000000000000000000000007bffffffffffffffffffffffffffffffffffffffffffffffffffffffff1916827bffffffffffffffffffffffffffffffffffffffffffffffffffffffff1916148061081157507f5b5e139f000000000000000000000000000000000000000000000000000000007bffffffffffffffffffffffffffffffffffffffffffffffffffffffff1916827bffffffffffffffffffffffffffffffffffffffffffffffffffffffff1916145b806108215750610820826114c4565b5b9050919050565b61083061152e565b80600b60006101000a81548160ff02191690831515021790555050565b60606000805461085c90613205565b80601f016020809104026020016040519081016040528092919081815260200182805461088890613205565b80156108d55780601f106108aa576101008083540402835291602001916108d5565b820191906000526020600020905b8154815290600101906020018083116108b857829003601f168201915b5050505050905090565b60006108ea826115ac565b6004600083815260200190815260200160002060009054906101000a900473ffffffffffffffffffffffffffffffffffffffff169050919050565b600061093082610ef2565b90508073ffffffffffffffffffffffffffffffffffffffff168373ffffffffffffffffffffffffffffffffffffffff1614156109a1576040517f08c379a000000000000000000000000000000000000000000000000000000000815260040161099890612e9c565b60405180910390fd5b8073ffffffffffffffffffffffffffffffffffffffff166109c06115f7565b73ffffffffffffffffffffffffffffffffffffffff1614806109ef57506109ee816109e96115f7565b6113ac565b5b610a2e576040517f08c379a0000000000000000000000000000000000000000000000000000000008152600401610a2590612dfc565b60405180910390fd5b610a3883836115ff565b505050565b60095481565b6000610a4f600a6116b8565b905090565b610a65610a5f6115f7565b826116c6565b610aa4576040517f08c379a0000000000000000000000000000000000000000000000000000000008152600401610a9b90612edc565b60405180910390fd5b610aaf83838361175b565b505050565b610abc61152e565b6000600c60008373ffffffffffffffffffffffffffffffffffffffff1673ffffffffffffffffffffffffffffffffffffffff16815260200190815260200160002060006101000a81548160ff02191690831515021790555050565b610b1f61152e565b6000610b296110fe565b73ffffffffffffffffffffffffffffffffffffffff1647604051610b4c90612c21565b60006040518083038185875af1925050503d8060008114610b89576040519150601f19603f3d011682016040523d82523d6000602084013e610b8e565b606091505b5050905080610b9c57600080fd5b50565b80600081118015610bb05750601581105b610bef576040517f08c379a0000000000000000000000000000000000000000000000000000000008152600401610be690612ebc565b60405180910390fd5b6103e881610bfb610a43565b610c05919061303a565b1115610c46576040517f08c379a0000000000000000000000000000000000000000000000000000000008152600401610c3d90612cfc565b60405180910390fd5b600b60009054906101000a900460ff1615610c6057600080fd5b610c686110fe565b73ffffffffffffffffffffffffffffffffffffffff163373ffffffffffffffffffffffffffffffffffffffff1614610d0e5760011515600c60003373ffffffffffffffffffffffffffffffffffffffff1673ffffffffffffffffffffffffffffffffffffffff16815260200190815260200160002060009054906101000a900460ff16151514610d0d5781600954610d0091906130c1565b341015610d0c57600080fd5b5b5b610d1883836119c2565b505050565b610d38838383604051806020016040528060008152506111d0565b505050565b60606000610d4a83611032565b905060008167ffffffffffffffff811115610d6857610d6761339e565b5b604051908082528060200260200182016040528015610d965781602001602082028036833780820191505090505b50905060006001905060005b8381108015610db357506103e88211155b15610e3c576000610dc383610ef2565b90508673ffffffffffffffffffffffffffffffffffffffff168173ffffffffffffffffffffffffffffffffffffffff161415610e285782848381518110610e0d57610e0c61336f565b5b6020026020010181815250508180610e2490613268565b9250505b8280610e3390613268565b93505050610da2565b82945050505050919050565b610e5061152e565b8060098190555050565b610e6261152e565b6001600c60008373ffffffffffffffffffffffffffffffffffffffff1673ffffffffffffffffffffffffffffffffffffffff16815260200190815260200160002060006101000a81548160ff02191690831515021790555050565b610ec561152e565b8060079080519060200190610edb92919061231d565b5050565b600b60009054906101000a900460ff1681565b6000806002600084815260200190815260200160002060009054906101000a900473ffffffffffffffffffffffffffffffffffffffff169050600073ffffffffffffffffffffffffffffffffffffffff168173ffffffffffffffffffffffffffffffffffffffff161415610f9b576040517f08c379a0000000000000000000000000000000000000000000000000000000008152600401610f9290612e7c565b60405180910390fd5b80915050919050565b60078054610fb190613205565b80601f0160208091040260200160405190810160405280929190818152602001828054610fdd90613205565b801561102a5780601f10610fff5761010080835404028352916020019161102a565b820191906000526020600020905b81548152906001019060200180831161100d57829003601f168201915b505050505081565b60008073ffffffffffffffffffffffffffffffffffffffff168273ffffffffffffffffffffffffffffffffffffffff1614156110a3576040517f08c379a000000000000000000000000000000000000000000000000000000000815260040161109a90612ddc565b60405180910390fd5b600360008373ffffffffffffffffffffffffffffffffffffffff1673ffffffffffffffffffffffffffffffffffffffff168152602001908152602001600020549050919050565b6110f261152e565b6110fc6000611a02565b565b6000600660009054906101000a900473ffffffffffffffffffffffffffffffffffffffff16905090565b60606001805461113790613205565b80601f016020809104026020016040519081016040528092919081815260200182805461116390613205565b80156111b05780601f10611185576101008083540402835291602001916111b0565b820191906000526020600020905b81548152906001019060200180831161119357829003601f168201915b5050505050905090565b6111cc6111c56115f7565b8383611ac8565b5050565b6111e16111db6115f7565b836116c6565b611220576040517f08c379a000000000000000000000000000000000000000000000000000000000815260040161121790612edc565b60405180910390fd5b61122c84848484611c35565b50505050565b6008805461123f90613205565b80601f016020809104026020016040519081016040528092919081815260200182805461126b90613205565b80156112b85780601f1061128d576101008083540402835291602001916112b8565b820191906000526020600020905b81548152906001019060200180831161129b57829003601f168201915b505050505081565b60606112cb82611c91565b61130a576040517f08c379a000000000000000000000000000000000000000000000000000000000815260040161130190612e5c565b60405180910390fd5b6000611314611cfd565b905060008151116113345760405180602001604052806000815250611362565b8061133e84611d8f565b600860405160200161135293929190612bf0565b6040516020818303038152906040525b915050919050565b600c6020528060005260406000206000915054906101000a900460ff1681565b61139261152e565b80600890805190602001906113a892919061231d565b5050565b6000600560008473ffffffffffffffffffffffffffffffffffffffff1673ffffffffffffffffffffffffffffffffffffffff16815260200190815260200160002060008373ffffffffffffffffffffffffffffffffffffffff1673ffffffffffffffffffffffffffffffffffffffff16815260200190815260200160002060009054906101000a900460ff16905092915050565b61144861152e565b600073ffffffffffffffffffffffffffffffffffffffff168173ffffffffffffffffffffffffffffffffffffffff1614156114b8576040517f08c379a00000000000000000000000000000000000000000000000000000000081526004016114af90612d3c565b60405180910390fd5b6114c181611a02565b50565b60007f01ffc9a7000000000000000000000000000000000000000000000000000000007bffffffffffffffffffffffffffffffffffffffffffffffffffffffff1916827bffffffffffffffffffffffffffffffffffffffffffffffffffffffff1916149050919050565b6115366115f7565b73ffffffffffffffffffffffffffffffffffffffff166115546110fe565b73ffffffffffffffffffffffffffffffffffffffff16146115aa576040517f08c379a00000000000000000000000000000000000000000000000000000000081526004016115a190612e3c565b60405180910390fd5b565b6115b581611c91565b6115f4576040517f08c379a00000000000000000000000000000000000000000000000000000000081526004016115eb90612e7c565b60405180910390fd5b50565b600033905090565b816004600083815260200190815260200160002060006101000a81548173ffffffffffffffffffffffffffffffffffffffff021916908373ffffffffffffffffffffffffffffffffffffffff160217905550808273ffffffffffffffffffffffffffffffffffffffff1661167283610ef2565b73ffffffffffffffffffffffffffffffffffffffff167f8c5be1e5ebec7d5bd14f71427d1e84f3dd0314c0f7b2291e5b200ac8c7c3b92560405160405180910390a45050565b600081600001549050919050565b6000806116d283610ef2565b90508073ffffffffffffffffffffffffffffffffffffffff168473ffffffffffffffffffffffffffffffffffffffff161480611714575061171381856113ac565b5b8061175257508373ffffffffffffffffffffffffffffffffffffffff1661173a846108df565b73ffffffffffffffffffffffffffffffffffffffff16145b91505092915050565b8273ffffffffffffffffffffffffffffffffffffffff1661177b82610ef2565b73ffffffffffffffffffffffffffffffffffffffff16146117d1576040517f08c379a00000000000000000000000000000000000000000000000000000000081526004016117c890612d5c565b60405180910390fd5b600073ffffffffffffffffffffffffffffffffffffffff168273ffffffffffffffffffffffffffffffffffffffff161415611841576040517f08c379a000000000000000000000000000000000000000000000000000000000815260040161183890612d9c565b60405180910390fd5b61184c838383611ef0565b6118576000826115ff565b6001600360008573ffffffffffffffffffffffffffffffffffffffff1673ffffffffffffffffffffffffffffffffffffffff16815260200190815260200160002060008282546118a7919061311b565b925050819055506001600360008473ffffffffffffffffffffffffffffffffffffffff1673ffffffffffffffffffffffffffffffffffffffff16815260200190815260200160002060008282546118fe919061303a565b92505081905550816002600083815260200190815260200160002060006101000a81548173ffffffffffffffffffffffffffffffffffffffff021916908373ffffffffffffffffffffffffffffffffffffffff160217905550808273ffffffffffffffffffffffffffffffffffffffff168473ffffffffffffffffffffffffffffffffffffffff167fddf252ad1be2c89b69c2b068fc378daa952ba7f163c4a11628f55a4df523b3ef60405160405180910390a46119bd838383611ef5565b505050565b60005b818110156119fd576119d7600a611efa565b6119ea836119e5600a6116b8565b611f10565b80806119f590613268565b9150506119c5565b505050565b6000600660009054906101000a900473ffffffffffffffffffffffffffffffffffffffff16905081600660006101000a81548173ffffffffffffffffffffffffffffffffffffffff021916908373ffffffffffffffffffffffffffffffffffffffff1602179055508173ffffffffffffffffffffffffffffffffffffffff168173ffffffffffffffffffffffffffffffffffffffff167f8be0079c531659141344cd1fd0a4f28419497f9722a3daafe3b4186f6b6457e060405160405180910390a35050565b8173ffffffffffffffffffffffffffffffffffffffff168373ffffffffffffffffffffffffffffffffffffffff161415611b37576040517f08c379a0000000000000000000000000000000000000000000000000000000008152600401611b2e90612dbc565b60405180910390fd5b80600560008573ffffffffffffffffffffffffffffffffffffffff1673ffffffffffffffffffffffffffffffffffffffff16815260200190815260200160002060008473ffffffffffffffffffffffffffffffffffffffff1673ffffffffffffffffffffffffffffffffffffffff16815260200190815260200160002060006101000a81548160ff0219169083151502179055508173ffffffffffffffffffffffffffffffffffffffff168373ffffffffffffffffffffffffffffffffffffffff167f17307eab39ab6107e8899845ad3d59bd9653f200f220920489ca2b5937696c3183604051611c289190612cbf565b60405180910390a3505050565b611c4084848461175b565b611c4c84848484611f2e565b611c8b576040517f08c379a0000000000000000000000000000000000000000000000000000000008152600401611c8290612d1c565b60405180910390fd5b50505050565b60008073ffffffffffffffffffffffffffffffffffffffff166002600084815260200190815260200160002060009054906101000a900473ffffffffffffffffffffffffffffffffffffffff1673ffffffffffffffffffffffffffffffffffffffff1614159050919050565b606060078054611d0c90613205565b80601f0160208091040260200160405190810160405280929190818152602001828054611d3890613205565b8015611d855780601f10611d5a57610100808354040283529160200191611d85565b820191906000526020600020905b815481529060010190602001808311611d6857829003601f168201915b5050505050905090565b60606000821415611dd7576040518060400160405280600181526020017f30000000000000000000000000000000000000000000000000000000000000008152509050611eeb565b600082905060005b60008214611e09578080611df290613268565b915050600a82611e029190613090565b9150611ddf565b60008167ffffffffffffffff811115611e2557611e2461339e565b5b6040519080825280601f01601f191660200182016040528015611e575781602001600182028036833780820191505090505b5090505b60008514611ee457600182611e70919061311b565b9150600a85611e7f91906132b1565b6030611e8b919061303a565b60f81b818381518110611ea157611ea061336f565b5b60200101907effffffffffffffffffffffffffffffffffffffffffffffffffffffffffffff1916908160001a905350600a85611edd9190613090565b9450611e5b565b8093505050505b919050565b505050565b505050565b6001816000016000828254019250508190555050565b611f2a8282604051806020016040528060008152506120c5565b5050565b6000611f4f8473ffffffffffffffffffffffffffffffffffffffff16612120565b156120b8578373ffffffffffffffffffffffffffffffffffffffff1663150b7a02611f786115f7565b8786866040518563ffffffff1660e01b8152600401611f9a9493929190612c51565b602060405180830381600087803b158015611fb457600080fd5b505af1925050508015611fe557506040513d601f19601f82011682018060405250810190611fe29190612726565b60015b612068573d8060008114612015576040519150601f19603f3d011682016040523d82523d6000602084013e61201a565b606091505b50600081511415612060576040517f08c379a000000000000000000000000000000000000000000000000000000000815260040161205790612d1c565b60405180910390fd5b805181602001fd5b63150b7a0260e01b7bffffffffffffffffffffffffffffffffffffffffffffffffffffffff1916817bffffffffffffffffffffffffffffffffffffffffffffffffffffffff1916149150506120bd565b600190505b949350505050565b6120cf8383612143565b6120dc6000848484611f2e565b61211b576040517f08c379a000000000000000000000000000000000000000000000000000000000815260040161211290612d1c565b60405180910390fd5b505050565b6000808273ffffffffffffffffffffffffffffffffffffffff163b119050919050565b600073ffffffffffffffffffffffffffffffffffffffff168273ffffffffffffffffffffffffffffffffffffffff1614156121b3576040517f08c379a00000000000000000000000000000000000000000000000000000000081526004016121aa90612e1c565b60405180910390fd5b6121bc81611c91565b156121fc576040517f08c379a00000000000000000000000000000000000000000000000000000000081526004016121f390612d7c565b60405180910390fd5b61220860008383611ef0565b6001600360008473ffffffffffffffffffffffffffffffffffffffff1673ffffffffffffffffffffffffffffffffffffffff1681526020019081526020016000206000828254612258919061303a565b92505081905550816002600083815260200190815260200160002060006101000a81548173ffffffffffffffffffffffffffffffffffffffff021916908373ffffffffffffffffffffffffffffffffffffffff160217905550808273ffffffffffffffffffffffffffffffffffffffff16600073ffffffffffffffffffffffffffffffffffffffff167fddf252ad1be2c89b69c2b068fc378daa952ba7f163c4a11628f55a4df523b3ef60405160405180910390a461231960008383611ef5565b5050565b82805461232990613205565b90600052602060002090601f01602090048101928261234b5760008555612392565b82601f1061236457805160ff1916838001178555612392565b82800160010185558215612392579182015b82811115612391578251825591602001919060010190612376565b5b50905061239f91906123a3565b5090565b5b808211156123bc5760008160009055506001016123a4565b5090565b60006123d36123ce84612f3c565b612f17565b9050828152602081018484840111156123ef576123ee6133d2565b5b6123fa8482856131c3565b509392505050565b600061241561241084612f6d565b612f17565b905082815260208101848484011115612431576124306133d2565b5b61243c8482856131c3565b509392505050565b600081359050612453816137db565b92915050565b600081359050612468816137f2565b92915050565b60008135905061247d81613809565b92915050565b60008151905061249281613809565b92915050565b600082601f8301126124ad576124ac6133cd565b5b81356124bd8482602086016123c0565b91505092915050565b600082601f8301126124db576124da6133cd565b5b81356124eb848260208601612402565b91505092915050565b60008135905061250381613820565b92915050565b60006020828403121561251f5761251e6133dc565b5b600061252d84828501612444565b91505092915050565b6000806040838503121561254d5761254c6133dc565b5b600061255b85828601612444565b925050602061256c85828601612444565b9150509250929050565b60008060006060848603121561258f5761258e6133dc565b5b600061259d86828701612444565b93505060206125ae86828701612444565b92505060406125bf868287016124f4565b9150509250925092565b600080600080608085870312156125e3576125e26133dc565b5b60006125f187828801612444565b945050602061260287828801612444565b9350506040612613878288016124f4565b925050606085013567ffffffffffffffff811115612634576126336133d7565b5b61264087828801612498565b91505092959194509250565b60008060408385031215612663576126626133dc565b5b600061267185828601612444565b925050602061268285828601612459565b9150509250929050565b600080604083850312156126a3576126a26133dc565b5b60006126b185828601612444565b92505060206126c2858286016124f4565b9150509250929050565b6000602082840312156126e2576126e16133dc565b5b60006126f084828501612459565b91505092915050565b60006020828403121561270f5761270e6133dc565b5b600061271d8482850161246e565b91505092915050565b60006020828403121561273c5761273b6133dc565b5b600061274a84828501612483565b91505092915050565b600060208284031215612769576127686133dc565b5b600082013567ffffffffffffffff811115612787576127866133d7565b5b612793848285016124c6565b91505092915050565b6000602082840312156127b2576127b16133dc565b5b60006127c0848285016124f4565b91505092915050565b60006127d58383612bd2565b60208301905092915050565b6127ea8161314f565b82525050565b60006127fb82612fc3565b6128058185612ff1565b935061281083612f9e565b8060005b8381101561284157815161282888826127c9565b975061283383612fe4565b925050600181019050612814565b5085935050505092915050565b61285781613161565b82525050565b600061286882612fce565b6128728185613002565b93506128828185602086016131d2565b61288b816133e1565b840191505092915050565b60006128a182612fd9565b6128ab818561301e565b93506128bb8185602086016131d2565b6128c4816133e1565b840191505092915050565b60006128da82612fd9565b6128e4818561302f565b93506128f48185602086016131d2565b80840191505092915050565b6000815461290d81613205565b612917818661302f565b94506001821660008114612932576001811461294357612976565b60ff19831686528186019350612976565b61294c85612fae565b60005b8381101561296e5781548189015260018201915060208101905061294f565b838801955050505b50505092915050565b600061298c60138361301e565b9150612997826133f2565b602082019050919050565b60006129af60328361301e565b91506129ba8261341b565b604082019050919050565b60006129d260268361301e565b91506129dd8261346a565b604082019050919050565b60006129f560258361301e565b9150612a00826134b9565b604082019050919050565b6000612a18601c8361301e565b9150612a2382613508565b602082019050919050565b6000612a3b60248361301e565b9150612a4682613531565b604082019050919050565b6000612a5e60198361301e565b9150612a6982613580565b602082019050919050565b6000612a8160298361301e565b9150612a8c826135a9565b604082019050919050565b6000612aa4603e8361301e565b9150612aaf826135f8565b604082019050919050565b6000612ac760208361301e565b9150612ad282613647565b602082019050919050565b6000612aea60208361301e565b9150612af582613670565b602082019050919050565b6000612b0d602f8361301e565b9150612b1882613699565b604082019050919050565b6000612b3060188361301e565b9150612b3b826136e8565b602082019050919050565b6000612b5360218361301e565b9150612b5e82613711565b604082019050919050565b6000612b76600083613013565b9150612b8182613760565b600082019050919050565b6000612b9960138361301e565b9150612ba482613763565b602082019050919050565b6000612bbc602e8361301e565b9150612bc78261378c565b604082019050919050565b612bdb816131b9565b82525050565b612bea816131b9565b82525050565b6000612bfc82866128cf565b9150612c0882856128cf565b9150612c148284612900565b9150819050949350505050565b6000612c2c82612b69565b9150819050919050565b6000602082019050612c4b60008301846127e1565b92915050565b6000608082019050612c6660008301876127e1565b612c7360208301866127e1565b612c806040830185612be1565b8181036060830152612c92818461285d565b905095945050505050565b60006020820190508181036000830152612cb781846127f0565b905092915050565b6000602082019050612cd4600083018461284e565b92915050565b60006020820190508181036000830152612cf48184612896565b905092915050565b60006020820190508181036000830152612d158161297f565b9050919050565b60006020820190508181036000830152612d35816129a2565b9050919050565b60006020820190508181036000830152612d55816129c5565b9050919050565b60006020820190508181036000830152612d75816129e8565b9050919050565b60006020820190508181036000830152612d9581612a0b565b9050919050565b60006020820190508181036000830152612db581612a2e565b9050919050565b60006020820190508181036000830152612dd581612a51565b9050919050565b60006020820190508181036000830152612df581612a74565b9050919050565b60006020820190508181036000830152612e1581612a97565b9050919050565b60006020820190508181036000830152612e3581612aba565b9050919050565b60006020820190508181036000830152612e5581612add565b9050919050565b60006020820190508181036000830152612e7581612b00565b9050919050565b60006020820190508181036000830152612e9581612b23565b9050919050565b60006020820190508181036000830152612eb581612b46565b9050919050565b60006020820190508181036000830152612ed581612b8c565b9050919050565b60006020820190508181036000830152612ef581612baf565b9050919050565b6000602082019050612f116000830184612be1565b92915050565b6000612f21612f32565b9050612f2d8282613237565b919050565b6000604051905090565b600067ffffffffffffffff821115612f5757612f5661339e565b5b612f60826133e1565b9050602081019050919050565b600067ffffffffffffffff821115612f8857612f8761339e565b5b612f91826133e1565b9050602081019050919050565b6000819050602082019050919050565b60008190508160005260206000209050919050565b600081519050919050565b600081519050919050565b600081519050919050565b6000602082019050919050565b600082825260208201905092915050565b600082825260208201905092915050565b600081905092915050565b600082825260208201905092915050565b600081905092915050565b6000613045826131b9565b9150613050836131b9565b9250827fffffffffffffffffffffffffffffffffffffffffffffffffffffffffffffffff03821115613085576130846132e2565b5b828201905092915050565b600061309b826131b9565b91506130a6836131b9565b9250826130b6576130b5613311565b5b828204905092915050565b60006130cc826131b9565b91506130d7836131b9565b9250817fffffffffffffffffffffffffffffffffffffffffffffffffffffffffffffffff04831182151516156131105761310f6132e2565b5b828202905092915050565b6000613126826131b9565b9150613131836131b9565b925082821015613144576131436132e2565b5b828203905092915050565b600061315a82613199565b9050919050565b60008115159050919050565b60007fffffffff0000000000000000000000000000000000000000000000000000000082169050919050565b600073ffffffffffffffffffffffffffffffffffffffff82169050919050565b6000819050919050565b82818337600083830152505050565b60005b838110156131f05780820151818401526020810190506131d5565b838111156131ff576000848401525b50505050565b6000600282049050600182168061321d57607f821691505b6020821081141561323157613230613340565b5b50919050565b613240826133e1565b810181811067ffffffffffffffff8211171561325f5761325e61339e565b5b80604052505050565b6000613273826131b9565b91507fffffffffffffffffffffffffffffffffffffffffffffffffffffffffffffffff8214156132a6576132a56132e2565b5b600182019050919050565b60006132bc826131b9565b91506132c7836131b9565b9250826132d7576132d6613311565b5b828206905092915050565b7f4e487b7100000000000000000000000000000000000000000000000000000000600052601160045260246000fd5b7f4e487b7100000000000000000000000000000000000000000000000000000000600052601260045260246000fd5b7f4e487b7100000000000000000000000000000000000000000000000000000000600052602260045260246000fd5b7f4e487b7100000000000000000000000000000000000000000000000000000000600052603260045260246000fd5b7f4e487b7100000000000000000000000000000000000000000000000000000000600052604160045260246000fd5b600080fd5b600080fd5b600080fd5b600080fd5b6000601f19601f8301169050919050565b7f4d617820737570706c7920657863656564656400000000000000000000000000600082015250565b7f4552433732313a207472616e7366657220746f206e6f6e20455243373231526560008201527f63656976657220696d706c656d656e7465720000000000000000000000000000602082015250565b7f4f776e61626c653a206e6577206f776e657220697320746865207a65726f206160008201527f6464726573730000000000000000000000000000000000000000000000000000602082015250565b7f4552433732313a207472616e736665722066726f6d20696e636f72726563742060008201527f6f776e6572000000000000000000000000000000000000000000000000000000602082015250565b7f4552433732313a20746f6b656e20616c7265616479206d696e74656400000000600082015250565b7f4552433732313a207472616e7366657220746f20746865207a65726f2061646460008201527f7265737300000000000000000000000000000000000000000000000000000000602082015250565b7f4552433732313a20617070726f766520746f2063616c6c657200000000000000600082015250565b7f4552433732313a2061646472657373207a65726f206973206e6f74206120766160008201527f6c6964206f776e65720000000000000000000000000000000000000000000000602082015250565b7f4552433732313a20617070726f76652063616c6c6572206973206e6f7420746f60008201527f6b656e206f776e6572206e6f7220617070726f76656420666f7220616c6c0000602082015250565b7f4552433732313a206d696e7420746f20746865207a65726f2061646472657373600082015250565b7f4f776e61626c653a2063616c6c6572206973206e6f7420746865206f776e6572600082015250565b7f4552433732314d657461646174613a2055524920717565727920666f72206e6f60008201527f6e6578697374656e7420746f6b656e0000000000000000000000000000000000602082015250565b7f4552433732313a20696e76616c696420746f6b656e2049440000000000000000600082015250565b7f4552433732313a20617070726f76616c20746f2063757272656e74206f776e6560008201527f7200000000000000000000000000000000000000000000000000000000000000602082015250565b50565b7f496e76616c6964206d696e7420616d6f756e7400000000000000000000000000600082015250565b7f4552433732313a2063616c6c6572206973206e6f7420746f6b656e206f776e6560008201527f72206e6f7220617070726f766564000000000000000000000000000000000000602082015250565b6137e48161314f565b81146137ef57600080fd5b50565b6137fb81613161565b811461380657600080fd5b50565b6138128161316d565b811461381d57600080fd5b50565b613829816131b9565b811461383457600080fd5b5056fea26469706673582212205085811982b89db94a7a7aa35e7b079a8a99729d2101daef75f7898e726e777464736f6c63430008070033",
  "linkReferences": {},
  "deployedLinkReferences": {}
}